S0150000456E636F6465725F41746D656C2E73726563FD
S11300000C942A000C9447000C9447000C9447006D
S11300100C9447000C9447000C9447000C94470040
S11300200C9447000C9447000C9449000C9447002E
S11300300C9447000C9447000C9447000C94470020
S11300400C9447000C9447000C9447000C94470010
S11300500C94470011241FBECFE5D8E0DEBFCDBF0E
S113006011E0A0E6B0E0E2E3F6E002C005900D92F4
S1130070A032B107D9F721E0A0E2B1E001C01D929E
S1130080AC33B207E1F70E94C4000C9417030C943C
S113009000001F920F920FB60F9211242F933F93DB
S11300A04F935F936F937F938F939F93AF93BF937C
S11300B0EF93FF938EE291E00E94DD0180E291E0F4
S11300C00E94DD01FF91EF91BF91AF919F918F91BC
S11300D07F916F915F914F913F912F910F900FBE40
S11300E00F901F9018958BE083BF8CE78CBF89B766
S11300F0826089BF0895CF92EF920F931F930E945D
S1130100A00261E08BE890E00E94B6020F2EF3E0BB
S1130110CF2EF02D6894EE24E1F805E310E024E3FB
S113012030E043E350E061E08EE291E00E9461013F
S1130130CC24C394E12C24E330E043E350E062E0B8
S113014080E291E00E9461010F2EF7E0CF2EF02DA6
S11301500F2EF6E0EF2EF02D05E024E04BE350E007
S11301606AE370E080E291E00E94950161E081EA37
S113017090E00E94B6020E94730080EF84BB1F913E
S11301800F91EF90CF900895CF93DF93CDB7DEB763
S11301902A970FB6F894DEBF0FBECDBF0E947B0036
S11301A061E083EB90E00E94B602789400E010E0F6
S11301B0C12CD12C760103C07301620184018EE24B
S11301C091E00E94D4012C01990F660877084C0C29
S11301D05D1C6E1C7F1C80E291E00E94D4014801EA
S11301E0880E991EC414D504E604F70421F160E0D6
S11301F082EC90E00E94B6024AE0BE016F5F7F4F3E
S1130200C2010E94E20261E0CE0101960E94B602A0
S1130210F4B260E087ED90E00E94B60242E0BE01D5
S11302206F5F7F4F8F2D90E00E94E20261E0CE016C
S113023001960E94B6020815190509F4BDCF60E0C5
S11302408DED90E00E94B6024AE0BE016F5F7F4FE1
S1130250C4010E94E20261E0CE0101960E94B6024E
S113026060E081EF90E00E94B6024AE0BE016F5F59
S11302707F4FC4010E94E20261E0CE0101960E9418
S1130280B6025401C0902001D0902101E0902201D7
S1130290F090230100912401109125012091260161
S11302A030912701409128015091290160912A0140
S11302B070912B0180912C0190912D010E940B02D1
S11302C07BCFCF92EF920F931F93CF93DF93FC01D9
S11302D0D801608381E090E0BC0102C0660F771F03
S11302E0EA94E2F7618302C0880F991FCA94E2F787
S11302F0828354834383178216821582918182817B
S1130300892390E080959095E901988189238883D9
S113031091818281892B9C91892B8C93DF91CF9140
S11303201F910F91EF90CF900895CF92EF920F937A
S1130330FC015187408781E090E0DC01022E02C07D
S1130340AA0FBB1F0A94E2F7A287DC010C2C02C09F
S1130350AA0FBB1F0A94E2F7A587DC01002E02C096
S1130360AA0FBB1F0A94E2F7A3870E2C02C0880FC2
S1130370991F0A94E2F784878AE090E09783868342
S1130380FB019081822F8C29802B8E29892B8083DD
S1130390FA018081C2220C21E022E094E822E0826A
S11303A00F91EF90CF900895FC0186819781178279
S11303B01682082E000C990B0895FC01858190E0AB
S11303C0880F991F880F991F8F708583A381B4812B
S11303D09C918181892319F0858182608583A38121
S11303E0B4819C918281892319F085818160858300
S11303F0A581B0E0A15FBE4F8C91813011F08F3F99
S113040049F426813781A901480F511D87FD5A956A
S1130410578346830895AF92BF92CF92DF92EF92B3
S1130420FF920F931F93CF93DF93CDB7DEB72E9731
S11304300FB6F894DEBF0FBECDBFC982DA82EB825D
S1130440FC820D831E832F83388749875A876B87E5
S11304507C878D879E87C50101970A97A8F4E98553
S1130460FA859081862F892B80839081872F8095B0
S11304708923808390818D858095892380839081D1
S11304808E85809589238083C5010B970A97A8F4EC
S1130490E985FA8590818B85809589238083908175
S11304A08C85892B808390818D8580958923808399
S11304B090818E85809589238083C50144970A970E
S11304C0A8F4E985FA8590818B85809589238083BA
S11304D090818C8580958923808390818D85892B5B
S11304E0808390818E858095892380838FE1A816EF
S11304F0B104ACF0E985FA8590818B8580958923D8
S1130500808390818C8580958923808390818D85DB
S113051080958923808390818E85892B80832E9674
S11305200FB6F894DEBF0FBECDBFDF91CF911F9100
S11305300F91FF90EF90DF90CF90BF90AF90089510
S113054010BC83E389B988E08AB986E880BD089540
S11305505D9BFECF8CB9662341F060E08DE00E9484
S1130560A80260E08AE00E94A8020895FF920F9317
S11305701F93CF93DF938C01F62EC0E0D0E008C028
S1130580F801EC0FFD1F60E080810E94A802219613
S1130590F80101900020E9F73197E01BF10BCE1729
S11305A0DF0770F3FF2041F060E08DE00E94A802B5
S11305B060E08AE00E94A802DF91CF911F910F9121
S11305C0FF900895BB274A3031F4992322F4BDE209
S11305D0909581959F4F0C94EE02BB27FB01552704
S11305E0AA27880F991FAA1FA41710F0A41B83958C
S11305F05051B9F7A05DAA3308F0A95DA193009703
S113060079F7B111B1931192CB010C940703DC017A
S1130610FC01672F71917723E1F7329704C07C9135
S11306206D9370836291AE17BF07C8F30895F89471
S1050630FFCFF6
S1130632456E636F64657220003A207B004F6666E4
S11306427365743A004F6C6453746174653A005074
S1130652696E413A0050696E423A00496E697469A2
S1130662616C697A696E6720506F7274732E2E2ED4
S1130672005374617274696E672074696D65722EB9
S11306822E2E0053657475702066696E69736865F1
S1130692640056616C756520666F722046726571DE
S11306A275656E63793A00444452433A0056616C6C
S11306B2756520666F72204F534320547970653AF2
S11306C2005570646174696E67204C4544207769F3
S11306D2746820747970652076616C75653A0000DF
S11306E201FF00FF000001010000FF00FF01000004
S9030000FC
